{
  "_format": "hh-sol-artifact-1",
  "contractName": "SwapExamples",
  "sourceName": "contracts/SwapExamples.sol",
  "abi": [
    {
      "inputs": [],
      "name": "DAI",
      "outputs": [
        {
          "internalType": "address",
          "name": "",
          "type": "address"
        }
      ],
      "stateMutability": "view",
      "type": "function"
    },
    {
      "inputs": [],
      "name": "USDC",
      "outputs": [
        {
          "internalType": "address",
          "name": "",
          "type": "address"
        }
      ],
      "stateMutability": "view",
      "type": "function"
    },
    {
      "inputs": [],
      "name": "WETH9",
      "outputs": [
        {
          "internalType": "address",
          "name": "",
          "type": "address"
        }
      ],
      "stateMutability": "view",
      "type": "function"
    },
    {
      "inputs": [],
      "name": "poolFee",
      "outputs": [
        {
          "internalType": "uint24",
          "name": "",
          "type": "uint24"
        }
      ],
      "stateMutability": "view",
      "type": "function"
    },
    {
      "inputs": [
        {
          "internalType": "uint256",
          "name": "amountIn",
          "type": "uint256"
        }
      ],
      "name": "swapExactInputSingle",
      "outputs": [
        {
          "internalType": "uint256",
          "name": "amountOut",
          "type": "uint256"
        }
      ],
      "stateMutability": "nonpayable",
      "type": "function"
    },
    {
      "inputs": [
        {
          "internalType": "uint256",
          "name": "amountOut",
          "type": "uint256"
        },
        {
          "internalType": "uint256",
          "name": "amountInMaximum",
          "type": "uint256"
        }
      ],
      "name": "swapExactOutputSingle",
      "outputs": [
        {
          "internalType": "uint256",
          "name": "amountIn",
          "type": "uint256"
        }
      ],
      "stateMutability": "nonpayable",
      "type": "function"
    },
    {
      "inputs": [],
      "name": "swapRouter",
      "outputs": [
        {
          "internalType": "contract ISwapRouter",
          "name": "",
          "type": "address"
        }
      ],
      "stateMutability": "view",
      "type": "function"
    }
  ],
  "bytecode": "0x608060405273e592427a0aece92de3edee1f18e0157c058615646000806101000a81548173ffffffffffffffffffffffffffffffffffffffff021916908373ffffffffffffffffffffffffffffffffffffffff16021790555034801561006457600080fd5b50611372806100746000396000f3fe608060405234801561001057600080fd5b506004361061007d5760003560e01c806389a302711161005b57806389a30271146100ee578063c31c9c071461010c578063c4b69a181461012a578063e0bab4c41461015a5761007d565b8063089fe6aa146100825780634aa4a4fc146100a057806373bd43ad146100be575b600080fd5b61008a610178565b6040516100979190611104565b60405180910390f35b6100a861017e565b6040516100b59190610fa6565b60405180910390f35b6100d860048036038101906100d39190610c66565b610196565b6040516100e5919061111f565b60405180910390f35b6100f66103b9565b6040516101039190610fa6565b60405180910390f35b6101146103d1565b6040516101219190611021565b60405180910390f35b610144600480360381019061013f9190610cc0565b6103f5565b604051610151919061111f565b60405180910390f35b610162610682565b60405161016f9190610fa6565b60405180910390f35b610bb881565b73b4fbf271143f4fbf7b91a5ded31805e42b2208d681565b60006101a13061069a565b6101e06040518060400160405280600781526020017f616464726573730000000000000000000000000000000000000000000000000081525033610733565b61020073b4fbf271143f4fbf7b91a5ded31805e42b2208d63330856107cf565b61023f73b4fbf271143f4fbf7b91a5ded31805e42b2208d660008054906101000a900473ffffffffffffffffffffffffffffffffffffffff1684610927565b600060405180610100016040528073b4fbf271143f4fbf7b91a5ded31805e42b2208d673ffffffffffffffffffffffffffffffffffffffff16815260200173dc31ee1784292379fbb2964b3b9c4124d8f89c6073ffffffffffffffffffffffffffffffffffffffff168152602001610bb862ffffff1681526020013373ffffffffffffffffffffffffffffffffffffffff16815260200142815260200184815260200160008152602001600073ffffffffffffffffffffffffffffffffffffffff16815250905060008054906101000a900473ffffffffffffffffffffffffffffffffffffffff1673ffffffffffffffffffffffffffffffffffffffff1663414bf389826040518263ffffffff1660e01b815260040161035f91906110cc565b602060405180830381600087803b15801561037957600080fd5b505af115801561038d573d6000803e3d6000fd5b505050506040513d601f19601f820116820180604052508101906103b19190610c93565b915050919050565b7307865c6e87b9f70255377e024ace6630c1eaa37f81565b60008054906101000a900473ffffffffffffffffffffffffffffffffffffffff1681565b60006104366040518060400160405280601081526020017f746f2074686520616464726573733a200000000000000000000000000000000081525033610733565b61045673b4fbf271143f4fbf7b91a5ded31805e42b2208d63330856107cf565b61049573b4fbf271143f4fbf7b91a5ded31805e42b2208d660008054906101000a900473ffffffffffffffffffffffffffffffffffffffff1684610927565b600060405180610100016040528073b4fbf271143f4fbf7b91a5ded31805e42b2208d673ffffffffffffffffffffffffffffffffffffffff16815260200173dc31ee1784292379fbb2964b3b9c4124d8f89c6073ffffffffffffffffffffffffffffffffffffffff168152602001610bb862ffffff1681526020013373ffffffffffffffffffffffffffffffffffffffff168152602001428152602001858152602001848152602001600073ffffffffffffffffffffffffffffffffffffffff16815250905060008054906101000a900473ffffffffffffffffffffffffffffffffffffffff1673ffffffffffffffffffffffffffffffffffffffff1663db3e2198826040518263ffffffff1660e01b81526004016105b491906110e8565b602060405180830381600087803b1580156105ce57600080fd5b505af11580156105e2573d6000803e3d6000fd5b505050506040513d601f19601f820116820180604052508101906106069190610c93565b91508282101561067b5761065073b4fbf271143f4fbf7b91a5ded31805e42b2208d660008054906101000a900473ffffffffffffffffffffffffffffffffffffffff166000610927565b61067a73b4fbf271143f4fbf7b91a5ded31805e42b2208d6338486610675919061116c565b610a7c565b5b5092915050565b73dc31ee1784292379fbb2964b3b9c4124d8f89c6081565b610730816040516024016106ae9190610fa6565b6040516020818303038152906040527f2c2ecbc2000000000000000000000000000000000000000000000000000000007bffffffffffffffffffffffffffffffffffffffffffffffffffffffff19166020820180517bffffffffffffffffffffffffffffffffffffffffffffffffffffffff8381831617835250505050610bd1565b50565b6107cb828260405160240161074992919061103c565b6040516020818303038152906040527f319af333000000000000000000000000000000000000000000000000000000007bffffffffffffffffffffffffffffffffffffffffffffffffffffffff19166020820180517bffffffffffffffffffffffffffffffffffffffffffffffffffffffff8381831617835250505050610bd1565b5050565b6000808573ffffffffffffffffffffffffffffffffffffffff166323b872dd60e01b86868660405160240161080693929190610fc1565b604051602081830303815290604052907bffffffffffffffffffffffffffffffffffffffffffffffffffffffff19166020820180517bffffffffffffffffffffffffffffffffffffffffffffffffffffffff83818316178352505050506040516108709190610f8f565b6000604051808303816000865af19150503d80600081146108ad576040519150601f19603f3d011682016040523d82523d6000602084013e6108b2565b606091505b50915091508180156108e057506000815114806108df5750808060200190518101906108de9190610c39565b5b5b61091f576040517f08c379a0000000000000000000000000000000000000000000000000000000008152600401610916906110ac565b60405180910390fd5b505050505050565b6000808473ffffffffffffffffffffffffffffffffffffffff1663095ea7b360e01b858560405160240161095c929190610ff8565b604051602081830303815290604052907bffffffffffffffffffffffffffffffffffffffffffffffffffffffff19166020820180517bffffffffffffffffffffffffffffffffffffffffffffffffffffffff83818316178352505050506040516109c69190610f8f565b6000604051808303816000865af19150503d8060008114610a03576040519150601f19603f3d011682016040523d82523d6000602084013e610a08565b606091505b5091509150818015610a365750600081511480610a35575080806020019051810190610a349190610c39565b5b5b610a75576040517f08c379a0000000000000000000000000000000000000000000000000000000008152600401610a6c9061106c565b60405180910390fd5b5050505050565b6000808473ffffffffffffffffffffffffffffffffffffffff1663a9059cbb60e01b8585604051602401610ab1929190610ff8565b604051602081830303815290604052907bffffffffffffffffffffffffffffffffffffffffffffffffffffffff19166020820180517bffffffffffffffffffffffffffffffffffffffffffffffffffffffff8381831617835250505050604051610b1b9190610f8f565b6000604051808303816000865af19150503d8060008114610b58576040519150601f19603f3d011682016040523d82523d6000602084013e610b5d565b606091505b5091509150818015610b8b5750600081511480610b8a575080806020019051810190610b899190610c39565b5b5b610bca576040517f08c379a0000000000000000000000000000000000000000000000000000000008152600401610bc19061108c565b60405180910390fd5b5050505050565b60008151905060006a636f6e736f6c652e6c6f679050602083016000808483855afa5050505050565b600081519050610c098161130e565b92915050565b600081359050610c1e81611325565b92915050565b600081519050610c3381611325565b92915050565b600060208284031215610c4f57610c4e61127d565b5b6000610c5d84828501610bfa565b91505092915050565b600060208284031215610c7c57610c7b61127d565b5b6000610c8a84828501610c0f565b91505092915050565b600060208284031215610ca957610ca861127d565b5b6000610cb784828501610c24565b91505092915050565b60008060408385031215610cd757610cd661127d565b5b6000610ce585828601610c0f565b9250506020610cf685828601610c0f565b9150509250929050565b610d09816111a0565b82525050565b610d18816111a0565b82525050565b6000610d298261113a565b610d338185611150565b9350610d4381856020860161121b565b80840191505092915050565b610d58816111f7565b82525050565b6000610d6982611145565b610d73818561115b565b9350610d8381856020860161121b565b610d8c81611282565b840191505092915050565b6000610da460028361115b565b9150610daf82611293565b602082019050919050565b6000610dc760028361115b565b9150610dd2826112bc565b602082019050919050565b6000610dea60038361115b565b9150610df5826112e5565b602082019050919050565b61010082016000820151610e176000850182610d00565b506020820151610e2a6020850182610d00565b506040820151610e3d6040850182610f53565b506060820151610e506060850182610d00565b506080820151610e636080850182610f71565b5060a0820151610e7660a0850182610f71565b5060c0820151610e8960c0850182610f71565b5060e0820151610e9c60e0850182610f44565b50505050565b61010082016000820151610eb96000850182610d00565b506020820151610ecc6020850182610d00565b506040820151610edf6040850182610f53565b506060820151610ef26060850182610d00565b506080820151610f056080850182610f71565b5060a0820151610f1860a0850182610f71565b5060c0820151610f2b60c0850182610f71565b5060e0820151610f3e60e0850182610f44565b50505050565b610f4d816111be565b82525050565b610f5c816111de565b82525050565b610f6b816111de565b82525050565b610f7a816111ed565b82525050565b610f89816111ed565b82525050565b6000610f9b8284610d1e565b915081905092915050565b6000602082019050610fbb6000830184610d0f565b92915050565b6000606082019050610fd66000830186610d0f565b610fe36020830185610d0f565b610ff06040830184610f80565b949350505050565b600060408201905061100d6000830185610d0f565b61101a6020830184610f80565b9392505050565b60006020820190506110366000830184610d4f565b92915050565b600060408201905081810360008301526110568185610d5e565b90506110656020830184610d0f565b9392505050565b6000602082019050818103600083015261108581610d97565b9050919050565b600060208201905081810360008301526110a581610dba565b9050919050565b600060208201905081810360008301526110c581610ddd565b9050919050565b6000610100820190506110e26000830184610e00565b92915050565b6000610100820190506110fe6000830184610ea2565b92915050565b60006020820190506111196000830184610f62565b92915050565b60006020820190506111346000830184610f80565b92915050565b600081519050919050565b600081519050919050565b600081905092915050565b600082825260208201905092915050565b6000611177826111ed565b9150611182836111ed565b9250828210156111955761119461124e565b5b828203905092915050565b60006111ab826111be565b9050919050565b60008115159050919050565b600073ffffffffffffffffffffffffffffffffffffffff82169050919050565b600062ffffff82169050919050565b6000819050919050565b600061120282611209565b9050919050565b6000611214826111be565b9050919050565b60005b8381101561123957808201518184015260208101905061121e565b83811115611248576000848401525b50505050565b7f4e487b7100000000000000000000000000000000000000000000000000000000600052601160045260246000fd5b600080fd5b6000601f19601f8301169050919050565b7f5341000000000000000000000000000000000000000000000000000000000000600082015250565b7f5354000000000000000000000000000000000000000000000000000000000000600082015250565b7f5354460000000000000000000000000000000000000000000000000000000000600082015250565b611317816111b2565b811461132257600080fd5b50565b61132e816111ed565b811461133957600080fd5b5056fea264697066735822122079a4a80ae1996b37b564a2b02d8acbe3c0e365712061a4c4642ac08827aeb6be64736f6c63430008060033",
  "linkReferences": {},
  "deployedLinkReferences": {}
}